{
  "_format": "hh-sol-artifact-1",
  "contractName": "WinoraRaffle",
  "sourceName": "contracts/WinoraRaffle.sol",
  "abi": [
    {
      "inputs": [
        {
          "internalType": "address",
          "name": "_usdc",
          "type": "address"
        },
        {
          "internalType": "address",
          "name": "_feeRecipient",
          "type": "address"
        }
      ],
      "stateMutability": "nonpayable",
      "type": "constructor"
    },
    {
      "anonymous": false,
      "inputs": [
        {
          "indexed": true,
          "internalType": "uint256",
          "name": "id",
          "type": "uint256"
        },
        {
          "indexed": true,
          "internalType": "address",
          "name": "user",
          "type": "address"
        }
      ],
      "name": "Entered",
      "type": "event"
    },
    {
      "anonymous": false,
      "inputs": [
        {
          "indexed": true,
          "internalType": "uint256",
          "name": "id",
          "type": "uint256"
        },
        {
          "indexed": false,
          "internalType": "uint256",
          "name": "reward",
          "type": "uint256"
        },
        {
          "indexed": false,
          "internalType": "uint64",
          "name": "endTime",
          "type": "uint64"
        }
      ],
      "name": "RaffleCreated",
      "type": "event"
    },
    {
      "anonymous": false,
      "inputs": [
        {
          "indexed": true,
          "internalType": "uint256",
          "name": "id",
          "type": "uint256"
        },
        {
          "indexed": false,
          "internalType": "address",
          "name": "winner",
          "type": "address"
        },
        {
          "indexed": false,
          "internalType": "uint256",
          "name": "reward",
          "type": "uint256"
        },
        {
          "indexed": false,
          "internalType": "uint256",
          "name": "fee",
          "type": "uint256"
        }
      ],
      "name": "WinnerSelected",
      "type": "event"
    },
    {
      "inputs": [],
      "name": "ENTRY_FEE",
      "outputs": [
        {
          "internalType": "uint256",
          "name": "",
          "type": "uint256"
        }
      ],
      "stateMutability": "view",
      "type": "function"
    },
    {
      "inputs": [],
      "name": "MAX_FEE_BPS",
      "outputs": [
        {
          "internalType": "uint16",
          "name": "",
          "type": "uint16"
        }
      ],
      "stateMutability": "view",
      "type": "function"
    },
    {
      "inputs": [],
      "name": "USDC",
      "outputs": [
        {
          "internalType": "contract IERC20",
          "name": "",
          "type": "address"
        }
      ],
      "stateMutability": "view",
      "type": "function"
    },
    {
      "inputs": [
        {
          "internalType": "uint256",
          "name": "reward",
          "type": "uint256"
        },
        {
          "internalType": "uint64",
          "name": "duration",
          "type": "uint64"
        },
        {
          "internalType": "uint16",
          "name": "minP",
          "type": "uint16"
        },
        {
          "internalType": "uint16",
          "name": "maxP",
          "type": "uint16"
        }
      ],
      "name": "createRaffle",
      "outputs": [],
      "stateMutability": "nonpayable",
      "type": "function"
    },
    {
      "inputs": [
        {
          "internalType": "uint256",
          "name": "raffleId",
          "type": "uint256"
        }
      ],
      "name": "drawWinner",
      "outputs": [],
      "stateMutability": "nonpayable",
      "type": "function"
    },
    {
      "inputs": [
        {
          "internalType": "uint256",
          "name": "raffleId",
          "type": "uint256"
        }
      ],
      "name": "enter",
      "outputs": [],
      "stateMutability": "nonpayable",
      "type": "function"
    },
    {
      "inputs": [],
      "name": "feeBps",
      "outputs": [
        {
          "internalType": "uint16",
          "name": "",
          "type": "uint16"
        }
      ],
      "stateMutability": "view",
      "type": "function"
    },
    {
      "inputs": [],
      "name": "feeRecipient",
      "outputs": [
        {
          "internalType": "address",
          "name": "",
          "type": "address"
        }
      ],
      "stateMutability": "view",
      "type": "function"
    },
    {
      "inputs": [
        {
          "internalType": "uint256",
          "name": "id",
          "type": "uint256"
        }
      ],
      "name": "getParticipants",
      "outputs": [
        {
          "internalType": "address[]",
          "name": "",
          "type": "address[]"
        }
      ],
      "stateMutability": "view",
      "type": "function"
    },
    {
      "inputs": [
        {
          "internalType": "uint256",
          "name": "",
          "type": "uint256"
        },
        {
          "internalType": "address",
          "name": "",
          "type": "address"
        }
      ],
      "name": "hasEntered",
      "outputs": [
        {
          "internalType": "bool",
          "name": "",
          "type": "bool"
        }
      ],
      "stateMutability": "view",
      "type": "function"
    },
    {
      "inputs": [],
      "name": "owner",
      "outputs": [
        {
          "internalType": "address",
          "name": "",
          "type": "address"
        }
      ],
      "stateMutability": "view",
      "type": "function"
    },
    {
      "inputs": [],
      "name": "raffleCount",
      "outputs": [
        {
          "internalType": "uint256",
          "name": "",
          "type": "uint256"
        }
      ],
      "stateMutability": "view",
      "type": "function"
    },
    {
      "inputs": [
        {
          "internalType": "uint256",
          "name": "",
          "type": "uint256"
        }
      ],
      "name": "raffles",
      "outputs": [
        {
          "internalType": "uint256",
          "name": "reward",
          "type": "uint256"
        },
        {
          "internalType": "uint64",
          "name": "endTime",
          "type": "uint64"
        },
        {
          "internalType": "uint16",
          "name": "minParticipants",
          "type": "uint16"
        },
        {
          "internalType": "uint16",
          "name": "maxParticipants",
          "type": "uint16"
        },
        {
          "internalType": "bool",
          "name": "ended",
          "type": "bool"
        },
        {
          "internalType": "address",
          "name": "winner",
          "type": "address"
        },
        {
          "internalType": "uint256",
          "name": "collected",
          "type": "uint256"
        }
      ],
      "stateMutability": "view",
      "type": "function"
    },
    {
      "inputs": [
        {
          "internalType": "uint16",
          "name": "newFee",
          "type": "uint16"
        }
      ],
      "name": "setFeeBps",
      "outputs": [],
      "stateMutability": "nonpayable",
      "type": "function"
    },
    {
      "inputs": [
        {
          "internalType": "address",
          "name": "newRecipient",
          "type": "address"
        }
      ],
      "name": "setFeeRecipient",
      "outputs": [],
      "stateMutability": "nonpayable",
      "type": "function"
    }
  ],
  "bytecode": "0x60a06040526103e8600160146101000a81548161ffff021916908361ffff1602179055503480156200003057600080fd5b50604051620021663803806200216683398181016040528101906200005691906200017d565b336000806101000a81548173ffffffffffffffffffffffffffffffffffffffff021916908373ffffffffffffffffffffffffffffffffffffffff1602179055508173ffffffffffffffffffffffffffffffffffffffff1660808173ffffffffffffffffffffffffffffffffffffffff168152505080600160006101000a81548173ffffffffffffffffffffffffffffffffffffffff021916908373ffffffffffffffffffffffffffffffffffffffff1602179055505050620001c4565b600080fd5b600073ffffffffffffffffffffffffffffffffffffffff82169050919050565b6000620001458262000118565b9050919050565b620001578162000138565b81146200016357600080fd5b50565b60008151905062000177816200014c565b92915050565b6000806040838503121562000197576200019662000113565b5b6000620001a78582860162000166565b9250506020620001ba8582860162000166565b9150509250929050565b608051611f6a620001fc6000396000818161074701528181610809015281816108f301528181610ab90152610e9f0152611f6a6000f3fe608060405234801561001057600080fd5b50600436106100f55760003560e01c80638da5cb5b11610097578063d4d5a2cf11610066578063d4d5a2cf1461027a578063d55be8c614610296578063e74b981b146102b4578063f6d361cc146102d0576100f5565b80638da5cb5b146101f2578063a54c120c14610210578063a59f3e0c1461022e578063c1e3bd3e1461024a576100f5565b806346904840116100d357806346904840146101645780635d4bc0ce1461018257806360b2a56a146101b857806389a30271146101d4576100f5565b8063023b1fc9146100fa578063073c74f31461011657806324a9d85314610146575b600080fd5b610114600480360381019061010f919061121c565b6102ee565b005b610130600480360381019061012b91906112dd565b6103e9565b60405161013d9190611338565b60405180910390f35b61014e610418565b60405161015b9190611362565b60405180910390f35b61016c61042c565b604051610179919061138c565b60405180910390f35b61019c600480360381019061019791906113a7565b610452565b6040516101af9796959493929190611406565b60405180910390f35b6101d260048036038101906101cd91906113a7565b6104f1565b005b6101dc6108f1565b6040516101e991906114d4565b60405180910390f35b6101fa610915565b604051610207919061138c565b60405180910390f35b610218610939565b60405161022591906114ef565b60405180910390f35b610248600480360381019061024391906113a7565b61093f565b005b610264600480360381019061025f91906113a7565b610ccd565b60405161027191906115c8565b60405180910390f35b610294600480360381019061028f9190611616565b610d71565b005b61029e61108f565b6040516102ab9190611362565b60405180910390f35b6102ce60048036038101906102c9919061167d565b611095565b005b6102d86111d6565b6040516102e591906114ef565b60405180910390f35b60008054906101000a900473ffffffffffffffffffffffffffffffffffffffff1673ffffffffffffffffffffffffffffffffffffffff163373ffffffffffffffffffffffffffffffffffffffff161461037c576040517f08c379a000000000000000000000000000000000000000000000000000000000815260040161037390611707565b60405180910390fd5b6107d061ffff168161ffff1611156103c9576040517f08c379a00000000000000000000000000000000000000000000000000000000081526004016103c090611773565b60405180910390fd5b80600160146101000a81548161ffff021916908361ffff16021790555050565b60046020528160005260406000206020528060005260406000206000915091509054906101000a900460ff1681565b600160149054906101000a900461ffff1681565b600160009054906101000a900473ffffffffffffffffffffffffffffffffffffffff1681565b60036020528060005260406000206000915090508060000154908060010160009054906101000a900467ffffffffffffffff16908060010160089054906101000a900461ffff169080600101600a9054906101000a900461ffff169080600101600c9054906101000a900460ff16908060030160009054906101000a900473ffffffffffffffffffffffffffffffffffffffff16908060040154905087565b60006003600083815260200190815260200160002090508060010160009054906101000a900467ffffffffffffffff1667ffffffffffffffff16421161056c576040517f08c379a0000000000000000000000000000000000000000000000000000000008152600401610563906117df565b60405180910390fd5b80600101600c9054906101000a900460ff16156105be576040517f08c379a00000000000000000000000000000000000000000000000000000000081526004016105b59061184b565b60405180910390fd5b8060010160089054906101000a900461ffff1661ffff168160020180549050101561061e576040517f08c379a0000000000000000000000000000000000000000000000000000000008152600401610615906118b7565b60405180910390fd5b6000424484604051602001610635939291906118d7565b6040516020818303038152906040528051906020012060001c9050600082600201836002018054905083610669919061193d565b8154811061067a5761067961196e565b5b9060005260206000200160009054906101000a900473ffffffffffffffffffffffffffffffffffffffff169050808360030160006101000a81548173ffffffffffffffffffffffffffffffffffffffff021916908373ffffffffffffffffffffffffffffffffffffffff160217905550600183600101600c6101000a81548160ff0219169083151502179055506000612710600160149054906101000a900461ffff1661ffff16856004015461073091906119cc565b61073a9190611a0e565b90506000811115610807577f000000000000000000000000000000000000000000000000000000000000000073ffffffffffffffffffffffffffffffffffffffff1663a9059cbb600160009054906101000a900473ffffffffffffffffffffffffffffffffffffffff16836040518363ffffffff1660e01b81526004016107c2929190611a3f565b6020604051808303816000875af11580156107e1573d6000803e3d6000fd5b505050506040513d601f19601f820116820180604052508101906108059190611a94565b505b7f000000000000000000000000000000000000000000000000000000000000000073ffffffffffffffffffffffffffffffffffffffff1663a9059cbb8386600001546040518363ffffffff1660e01b8152600401610866929190611a3f565b6020604051808303816000875af1158015610885573d6000803e3d6000fd5b505050506040513d601f19601f820116820180604052508101906108a99190611a94565b50847f3d210d5ae36955ded2bdf69bd956eb075b7fd07362288c7df1797cd8eb1199bf838660000154846040516108e293929190611ac1565b60405180910390a25050505050565b7f000000000000000000000000000000000000000000000000000000000000000081565b60008054906101000a900473ffffffffffffffffffffffffffffffffffffffff1681565b60025481565b60006003600083815260200190815260200160002090508060010160009054906101000a900467ffffffffffffffff1667ffffffffffffffff1642106109ba576040517f08c379a00000000000000000000000000000000000000000000000000000000081526004016109b190611b44565b60405180910390fd5b6004600083815260200190815260200160002060003373ffffffffffffffffffffffffffffffffffffffff1673ffffffffffffffffffffffffffffffffffffffff16815260200190815260200160002060009054906101000a900460ff1615610a58576040517f08c379a0000000000000000000000000000000000000000000000000000000008152600401610a4f90611bb0565b60405180910390fd5b80600101600a9054906101000a900461ffff1661ffff16816002018054905010610ab7576040517f08c379a0000000000000000000000000000000000000000000000000000000008152600401610aae90611c1c565b60405180910390fd5b7f000000000000000000000000000000000000000000000000000000000000000073ffffffffffffffffffffffffffffffffffffffff166323b872dd3330620f42406040518463ffffffff1660e01b8152600401610b1793929190611c3c565b6020604051808303816000875af1158015610b36573d6000803e3d6000fd5b505050506040513d601f19601f82011682018060405250810190610b5a9190611a94565b610b99576040517f08c379a0000000000000000000000000000000000000000000000000000000008152600401610b9090611cbf565b60405180910390fd5b60016004600084815260200190815260200160002060003373ffffffffffffffffffffffffffffffffffffffff1673ffffffffffffffffffffffffffffffffffffffff16815260200190815260200160002060006101000a81548160ff02191690831515021790555080600201339080600181540180825580915050600190039060005260206000200160009091909190916101000a81548173ffffffffffffffffffffffffffffffffffffffff021916908373ffffffffffffffffffffffffffffffffffffffff160217905550620f4240816004016000828254610c7e9190611cdf565b925050819055503373ffffffffffffffffffffffffffffffffffffffff16827fb6fd8c45cc3179470a3187d092b90e5c003137b502dee828ed4aba08d714cec660405160405180910390a35050565b606060036000838152602001908152602001600020600201805480602002602001604051908101604052809291908181526020018280548015610d6557602002820191906000526020600020905b8160009054906101000a900473ffffffffffffffffffffffffffffffffffffffff1673ffffffffffffffffffffffffffffffffffffffff1681526020019060010190808311610d1b575b50505050509050919050565b60008054906101000a900473ffffffffffffffffffffffffffffffffffffffff1673ffffffffffffffffffffffffffffffffffffffff163373ffffffffffffffffffffffffffffffffffffffff1614610dff576040517f08c379a0000000000000000000000000000000000000000000000000000000008152600401610df690611707565b60405180910390fd5b60008411610e42576040517f08c379a0000000000000000000000000000000000000000000000000000000008152600401610e3990611d5f565b60405180910390fd5b8161ffff168161ffff1610158015610e5e575060008261ffff16115b610e9d576040517f08c379a0000000000000000000000000000000000000000000000000000000008152600401610e9490611dcb565b60405180910390fd5b7f000000000000000000000000000000000000000000000000000000000000000073ffffffffffffffffffffffffffffffffffffffff166323b872dd3330876040518463ffffffff1660e01b8152600401610efa93929190611c3c565b6020604051808303816000875af1158015610f19573d6000803e3d6000fd5b505050506040513d601f19601f82011682018060405250810190610f3d9190611a94565b610f7c576040517f08c379a0000000000000000000000000000000000000000000000000000000008152600401610f7390611e37565b60405180910390fd5b60026000815480929190610f8f90611e57565b9190505550600060036000600254815260200190815260200160002090508481600001819055508367ffffffffffffffff1642610fcc9190611cdf565b8160010160006101000a81548167ffffffffffffffff021916908367ffffffffffffffff160217905550828160010160086101000a81548161ffff021916908361ffff1602179055508181600101600a6101000a81548161ffff021916908361ffff1602179055506002547fb5f35ae33aa5d5b2557ba21f70897a5f518d32b92edd444d8bbb539106abddad868360010160009054906101000a900467ffffffffffffffff16604051611080929190611e9f565b60405180910390a25050505050565b6107d081565b60008054906101000a900473ffffffffffffffffffffffffffffffffffffffff1673ffffffffffffffffffffffffffffffffffffffff163373ffffffffffffffffffffffffffffffffffffffff1614611123576040517f08c379a000000000000000000000000000000000000000000000000000000000815260040161111a90611707565b60405180910390fd5b600073ffffffffffffffffffffffffffffffffffffffff168173ffffffffffffffffffffffffffffffffffffffff1603611192576040517f08c379a000000000000000000000000000000000000000000000000000000000815260040161118990611f14565b60405180910390fd5b80600160006101000a81548173ffffffffffffffffffffffffffffffffffffffff021916908373ffffffffffffffffffffffffffffffffffffffff16021790555050565b620f424081565b600080fd5b600061ffff82169050919050565b6111f9816111e2565b811461120457600080fd5b50565b600081359050611216816111f0565b92915050565b600060208284031215611232576112316111dd565b5b600061124084828501611207565b91505092915050565b6000819050919050565b61125c81611249565b811461126757600080fd5b50565b60008135905061127981611253565b92915050565b600073ffffffffffffffffffffffffffffffffffffffff82169050919050565b60006112aa8261127f565b9050919050565b6112ba8161129f565b81146112c557600080fd5b50565b6000813590506112d7816112b1565b92915050565b600080604083850312156112f4576112f36111dd565b5b60006113028582860161126a565b9250506020611313858286016112c8565b9150509250929050565b60008115159050919050565b6113328161131d565b82525050565b600060208201905061134d6000830184611329565b92915050565b61135c816111e2565b82525050565b60006020820190506113776000830184611353565b92915050565b6113868161129f565b82525050565b60006020820190506113a1600083018461137d565b92915050565b6000602082840312156113bd576113bc6111dd565b5b60006113cb8482850161126a565b91505092915050565b6113dd81611249565b82525050565b600067ffffffffffffffff82169050919050565b611400816113e3565b82525050565b600060e08201905061141b600083018a6113d4565b61142860208301896113f7565b6114356040830188611353565b6114426060830187611353565b61144f6080830186611329565b61145c60a083018561137d565b61146960c08301846113d4565b98975050505050505050565b6000819050919050565b600061149a6114956114908461127f565b611475565b61127f565b9050919050565b60006114ac8261147f565b9050919050565b60006114be826114a1565b9050919050565b6114ce816114b3565b82525050565b60006020820190506114e960008301846114c5565b92915050565b600060208201905061150460008301846113d4565b92915050565b600081519050919050565b600082825260208201905092915050565b6000819050602082019050919050565b61153f8161129f565b82525050565b60006115518383611536565b60208301905092915050565b6000602082019050919050565b60006115758261150a565b61157f8185611515565b935061158a83611526565b8060005b838110156115bb5781516115a28882611545565b97506115ad8361155d565b92505060018101905061158e565b5085935050505092915050565b600060208201905081810360008301526115e2818461156a565b905092915050565b6115f3816113e3565b81146115fe57600080fd5b50565b600081359050611610816115ea565b92915050565b600080600080608085870312156116305761162f6111dd565b5b600061163e8782880161126a565b945050602061164f87828801611601565b935050604061166087828801611207565b925050606061167187828801611207565b91505092959194509250565b600060208284031215611693576116926111dd565b5b60006116a1848285016112c8565b91505092915050565b600082825260208201905092915050565b7f6e6f74206f776e65720000000000000000000000000000000000000000000000600082015250565b60006116f16009836116aa565b91506116fc826116bb565b602082019050919050565b60006020820190508181036000830152611720816116e4565b9050919050565b7f746f6f2068696768000000000000000000000000000000000000000000000000600082015250565b600061175d6008836116aa565b915061176882611727565b602082019050919050565b6000602082019050818103600083015261178c81611750565b9050919050565b7f6e6f742079657400000000000000000000000000000000000000000000000000600082015250565b60006117c96007836116aa565b91506117d482611793565b602082019050919050565b600060208201905081810360008301526117f8816117bc565b9050919050565b7f646f6e6500000000000000000000000000000000000000000000000000000000600082015250565b60006118356004836116aa565b9150611840826117ff565b602082019050919050565b6000602082019050818103600083015261186481611828565b9050919050565b7f666577207061727469636970616e747300000000000000000000000000000000600082015250565b60006118a16010836116aa565b91506118ac8261186b565b602082019050919050565b600060208201905081810360008301526118d081611894565b9050919050565b60006060820190506118ec60008301866113d4565b6118f960208301856113d4565b61190660408301846113d4565b949350505050565b7f4e487b7100000000000000000000000000000000000000000000000000000000600052601260045260246000fd5b600061194882611249565b915061195383611249565b9250826119635761196261190e565b5b828206905092915050565b7f4e487b7100000000000000000000000000000000000000000000000000000000600052603260045260246000fd5b7f4e487b7100000000000000000000000000000000000000000000000000000000600052601160045260246000fd5b60006119d782611249565b91506119e283611249565b92508282026119f081611249565b91508282048414831517611a0757611a0661199d565b5b5092915050565b6000611a1982611249565b9150611a2483611249565b925082611a3457611a3361190e565b5b828204905092915050565b6000604082019050611a54600083018561137d565b611a6160208301846113d4565b9392505050565b611a718161131d565b8114611a7c57600080fd5b50565b600081519050611a8e81611a68565b92915050565b600060208284031215611aaa57611aa96111dd565b5b6000611ab884828501611a7f565b91505092915050565b6000606082019050611ad6600083018661137d565b611ae360208301856113d4565b611af060408301846113d4565b949350505050565b7f656e646564000000000000000000000000000000000000000000000000000000600082015250565b6000611b2e6005836116aa565b9150611b3982611af8565b602082019050919050565b60006020820190508181036000830152611b5d81611b21565b9050919050565b7f616c726561647900000000000000000000000000000000000000000000000000600082015250565b6000611b9a6007836116aa565b9150611ba582611b64565b602082019050919050565b60006020820190508181036000830152611bc981611b8d565b9050919050565b7f66756c6c00000000000000000000000000000000000000000000000000000000600082015250565b6000611c066004836116aa565b9150611c1182611bd0565b602082019050919050565b60006020820190508181036000830152611c3581611bf9565b9050919050565b6000606082019050611c51600083018661137d565b611c5e602083018561137d565b611c6b60408301846113d4565b949350505050565b7f7472616e73666572206661696c00000000000000000000000000000000000000600082015250565b6000611ca9600d836116aa565b9150611cb482611c73565b602082019050919050565b60006020820190508181036000830152611cd881611c9c565b9050919050565b6000611cea82611249565b9150611cf583611249565b9250828201905080821115611d0d57611d0c61199d565b5b92915050565b7f696e76616c696400000000000000000000000000000000000000000000000000600082015250565b6000611d496007836116aa565b9150611d5482611d13565b602082019050919050565b60006020820190508181036000830152611d7881611d3c565b9050919050565b7f6d696e2f6d617800000000000000000000000000000000000000000000000000600082015250565b6000611db56007836116aa565b9150611dc082611d7f565b602082019050919050565b60006020820190508181036000830152611de481611da8565b9050919050565b7f657363726f77206661696c000000000000000000000000000000000000000000600082015250565b6000611e21600b836116aa565b9150611e2c82611deb565b602082019050919050565b60006020820190508181036000830152611e5081611e14565b9050919050565b6000611e6282611249565b91507fffffffffffffffffffffffffffffffffffffffffffffffffffffffffffffffff8203611e9457611e9361199d565b5b600182019050919050565b6000604082019050611eb460008301856113d4565b611ec160208301846113f7565b9392505050565b7f7a65726f00000000000000000000000000000000000000000000000000000000600082015250565b6000611efe6004836116aa565b9150611f0982611ec8565b602082019050919050565b60006020820190508181036000830152611f2d81611ef1565b905091905056fea26469706673582212207ce7e808a1a42abab637eeaa3b057638365fae825efbbba52fc3d8b09d3d798164736f6c63430008180033",
  "linkReferences": {},
  "deployedLinkReferences": {}
}